{
  "transactions": [
    {
      "hash": "0x901702daa1ab0dd8ac899eb13b0ffa5ee720ae426d7c3839246c946da90d7f9d",
      "transactionType": "CALL",
      "contractName": null,
      "contractAddress": "0x5fbdb2315678afecb367f032d93f642f64180aa3",
      "function": "setTokenConfig(address,bool,uint256,uint256)",
      "arguments": [
        "0x109eE0da9dec1B49dbf93104474aCaFc0fc422E0",
        "true",
        "2000000000000000000",
        "86400"
      ],
      "transaction": {
        "from": "0xf39fd6e51aad88f6f4ce6ab8827279cfffb92266",
        "to": "0x5fbdb2315678afecb367f032d93f642f64180aa3",
        "gas": "0x10865",
        "value": "0x0",
        "input": "0x33d8dc28000000000000000000000000109ee0da9dec1b49dbf93104474acafc0fc422e000000000000000000000000000000000000000000000000000000000000000010000000000000000000000000000000000000000000000001bc16d674ec800000000000000000000000000000000000000000000000000000000000000015180",
        "nonce": "0x1",
        "chainId": "0x7a69"
      },
      "additionalContracts": [],
      "isFixedGasLimit": false
    }
  ],
  "receipts": [
    {
      "status": "0x1",
      "cumulativeGasUsed": "0xbf6c",
      "logs": [
        {
          "address": "0x5fbdb2315678afecb367f032d93f642f64180aa3",
          "topics": [
            "0xe8c62281951b24f101157a5fefcc4b4e8a6df776a9ff4a32ae78ce58b09555b3",
            "0x000000000000000000000000109ee0da9dec1b49dbf93104474acafc0fc422e0"
          ],
          "data": "0x00000000000000000000000000000000000000000000000000000000000000010000000000000000000000000000000000000000000000001bc16d674ec800000000000000000000000000000000000000000000000000000000000000015180",
          "blockHash": "0x459e31717d918c27fccb83ba9635eafadae60970c2d4a320e6e1438a578d06f4",
          "blockNumber": "0x2",
          "blockTimestamp": "0x68b55308",
          "transactionHash": "0x901702daa1ab0dd8ac899eb13b0ffa5ee720ae426d7c3839246c946da90d7f9d",
          "transactionIndex": "0x0",
          "logIndex": "0x0",
          "removed": false
        }
      ],
      "logsBloom": "0x00000000000000000000000000000000002000000000000000000000000000000000000000000000000000000000000000000000000000000000001000000008000000000000000000000000000000000000000000000000000008000000000000000040000000000000000000000000000000000000000000000000000000000000000000000000000000000000000400000000000000000000000200000000000000000000000000000000000000000000000000000000000000000000000004000040000000000000000000000000000000000000000000000000000000000000000000000000000000000000000000000000000000000000000000000000",
      "type": "0x2",
      "transactionHash": "0x901702daa1ab0dd8ac899eb13b0ffa5ee720ae426d7c3839246c946da90d7f9d",
      "transactionIndex": "0x0",
      "blockHash": "0x459e31717d918c27fccb83ba9635eafadae60970c2d4a320e6e1438a578d06f4",
      "blockNumber": "0x2",
      "gasUsed": "0xbf6c",
      "effectiveGasPrice": "0x34c081e8",
      "from": "0xf39fd6e51aad88f6f4ce6ab8827279cfffb92266",
      "to": "0x5fbdb2315678afecb367f032d93f642f64180aa3",
      "contractAddress": null,
      "root": "0xedf086b654dc82d813b16d20e6b37a15c2ab7d0ab42068ad77479377d27f40e7"
    }
  ],
  "libraries": [],
  "pending": [],
  "returns": {},
  "timestamp": 1756713736,
  "chain": 31337,
  "commit": null
}