{
  "transactions": [
    {
      "hash": "0x96d9d6e21fd6abf27fead78605dfee9deb70fb6e37421edda810844ab7b956f2",
      "transactionType": "CALL",
      "contractName": null,
      "contractAddress": "0x5fbdb2315678afecb367f032d93f642f64180aa3",
      "function": "setTokenConfig(address,bool,uint256,uint256)",
      "arguments": [
        "0xe7f1725E7734CE288F8367e1Bb143E90bb3F0512",
        "true",
        "2000000000000000000",
        "86400"
      ],
      "transaction": {
        "from": "0xf39fd6e51aad88f6f4ce6ab8827279cfffb92266",
        "to": "0x5fbdb2315678afecb367f032d93f642f64180aa3",
        "gas": "0x10865",
        "value": "0x0",
        "input": "0x33d8dc28000000000000000000000000e7f1725e7734ce288f8367e1bb143e90bb3f051200000000000000000000000000000000000000000000000000000000000000010000000000000000000000000000000000000000000000001bc16d674ec800000000000000000000000000000000000000000000000000000000000000015180",
        "nonce": "0x3",
        "chainId": "0x7a69"
      },
      "additionalContracts": [],
      "isFixedGasLimit": false
    }
  ],
  "receipts": [
    {
      "status": "0x1",
      "cumulativeGasUsed": "0xbf6c",
      "logs": [
        {
          "address": "0x5fbdb2315678afecb367f032d93f642f64180aa3",
          "topics": [
            "0xe8c62281951b24f101157a5fefcc4b4e8a6df776a9ff4a32ae78ce58b09555b3",
            "0x000000000000000000000000e7f1725e7734ce288f8367e1bb143e90bb3f0512"
          ],
          "data": "0x00000000000000000000000000000000000000000000000000000000000000010000000000000000000000000000000000000000000000001bc16d674ec800000000000000000000000000000000000000000000000000000000000000015180",
          "blockHash": "0xf533ee92c5295bfcd4a0fbe90920bb798a368ad383cd2c4ff4fa14f802fdc24e",
          "blockNumber": "0x3",
          "blockTimestamp": "0x68b5561c",
          "transactionHash": "0x96d9d6e21fd6abf27fead78605dfee9deb70fb6e37421edda810844ab7b956f2",
          "transactionIndex": "0x0",
          "logIndex": "0x0",
          "removed": false
        }
      ],
      "logsBloom": "0x00000000000000000400000000000000002000000000000000000000000000000000000000000000000000000000000000000000000000000000000000000000000000000000000000000000000000000000000000000000000008000000000000000040000000000000000000000000000000000000000000000004000000000000000000000000000000000000000400000000000000000000000200000000000000000000000000000002000000000000000000000000000000000000000000000040000000000000000000000000000000000000000000000000000000000000000000000000000000000000000000000000000000000000000000000000",
      "type": "0x2",
      "transactionHash": "0x96d9d6e21fd6abf27fead78605dfee9deb70fb6e37421edda810844ab7b956f2",
      "transactionIndex": "0x0",
      "blockHash": "0xf533ee92c5295bfcd4a0fbe90920bb798a368ad383cd2c4ff4fa14f802fdc24e",
      "blockNumber": "0x3",
      "gasUsed": "0xbf6c",
      "effectiveGasPrice": "0x2e8af277",
      "from": "0xf39fd6e51aad88f6f4ce6ab8827279cfffb92266",
      "to": "0x5fbdb2315678afecb367f032d93f642f64180aa3",
      "contractAddress": null,
      "root": "0x4e17370b59408fd433113eb680cdfbccc1204a8c59396990af3d175db347f780"
    }
  ],
  "libraries": [],
  "pending": [],
  "returns": {},
  "timestamp": 1756714524,
  "chain": 31337,
  "commit": null
}